:020000040000FA
:100000000C9462000C948A000C948A000C948A0070
:100010000C948A000C948A000C948A000C948A0038
:100020000C948A000C948A000C948A000C948A0028
:100030000C948A000C948A000C948A000C948A0018
:100040000C9418030C948A000C9488030C9462039B
:100050000C948A000C948A000C948A000C948A00F8
:100060000C948A000C948A000000000024002700F1
:100070002A0000000000250028002B0000000000DE
:1000800023002600290004040404040404040202DA
:100090000202020203030303030301020408102007
:1000A0004080010204081020010204081020000012
:1000B0000008000201000003040700000000000027
:1000C0000000BA0311241FBECFEFD8E0DEBFCDBFC2
:1000D00011E0A0E0B1E0E6E9FCE002C005900D927D
:1000E000A433B107D9F722E0A4E3B1E001C01D9227
:1000F000A934B207E1F710E0C2E6D0E004C02197CE
:10010000FE010E944306C136D107C9F70E94470489
:100110000C9449060C94000096E0899FD0011124AC
:10012000A652BE4F90967C936E935F9791E0919606
:100130009C939197E0914702F0914802909146027A
:10014000992339F0309751F0811108C08091F60160
:100150000994309719F05C968C91FACF0895CF925C
:10016000DF92EF92FF920F931F9396E0899FF00129
:100170001124E652FE4F11A2278D30A12130310506
:1001800051F178F02230310509F451C023303105A6
:1001900009F452C01F910F91FF90EF90DF90CF9024
:1001A00008956623B9F361E070E00E948C002FB7D8
:1001B000F8948091390190913A01A0913B01B0915E
:1001C0003C012FBF8093320290933302A0933402FC
:1001D000B0933502DFCF9FB7F894C0903901D0902B
:1001E0003A01E0903B01F0903C019FBF0091320248
:1001F000109133022091340230913502C01AD10A95
:10020000E20AF30A009144021091450230E020E036
:100210000C151D052E053F0550F462E070E01F919E
:100220000F91FF90EF90DF90CF900C948C006111B4
:10023000B1CF63E070E0F3CF70E060E0F0CF8330E7
:1002400081F028F4813099F08230A9F00895873048
:10025000A9F08830C9F08430B1F4809180008F7D9E
:1002600003C0809180008F7780938000089584B5CB
:100270008F7784BD089584B58F7DFBCF8091B000CA
:100280008F778093B00008958091B0008F7DF9CF73
:10029000CF93DF93282F30E0F901E255FF4F84918F
:1002A000F901E656FF4FD491F901EA57FF4FC49187
:1002B000CC23A1F081110E941F01EC2FF0E0EE0F82
:1002C000FF1FE458FF4FA591B491EC91ED2381E01D
:1002D00090E009F480E0DF91CF91089580E090E014
:1002E000FACF1F93CF93DF93282F30E0F901E25527
:1002F000FF4F8491F901E656FF4FD491F901EA5777
:10030000FF4FC491CC23A9F0162F81110E941F0129
:10031000EC2FF0E0EE0FFF1FEE58FF4FA591B491C8
:100320008FB7F894EC91111108C0D095DE23DC93BF
:100330008FBFDF91CF911F910895DE2BF8CFCF9320
:10034000DF9390E0FC01E656FF4F24918A579F4FC0
:10035000FC0184918823C9F090E0880F991FFC016B
:10036000E859FF4FA591B491FC01EE58FF4FC5919C
:10037000D49161110DC09FB7F8948C912095822380
:100380008C938881282328839FBFDF91CF91089584
:10039000623051F49FB7F8943C91822F809583236B
:1003A0008C93E8812E2BEFCF8FB7F894EC912E2B06
:1003B0002C938FBFEACF3FB7F8948091350190918D
:1003C0003601A0913701B091380126B5A89B05C030
:1003D0002F3F19F00196A11DB11D3FBFBA2FA92FC4
:1003E000982F8827BC01CD01620F711D811D911DC1
:1003F00042E0660F771F881F991F4A95D1F708952D
:10040000862F642F0C949F01862F642F0C9471010A
:10041000862F0C944801AF92BF92CF92DF92EF9259
:10042000FF920F931F93CF93DF936C017B018B019E
:10043000040F151FEB015E01AE18BF08C017D107EE
:1004400059F06991D601ED91FC910190F081E02D78
:10045000C6010995892B79F7C501DF91CF911F91CD
:100460000F91FF90EF90DF90CF90BF90AF900895E5
:10047000FC01538D448D252F30E0842F90E0821BAA
:10048000930B541710F0CF96089501970895FC012F
:10049000918D828D981761F0A28DAE0FBF2FB11D87
:1004A0005D968C91928D9F5F9F73928F90E00895DF
:1004B0008FEF9FEF0895FC01918D828D981731F099
:1004C000828DE80FF11D858D90E008958FEF9FEFED
:1004D0000895FC01918D228D892F90E0805C9F4FC3
:1004E000821B91098F73992708958DE391E00E94F3
:1004F000690221E0892B09F420E0822F089580E031
:1005000090E0892B29F00E94750281110C94000063
:100510000895FC01A48DA80FB92FB11DA35ABF4F98
:100520002C91848D90E001968F739927848FA689F2
:10053000B7892C93A089B1898C91837080648C9346
:10054000938D848D981306C00288F389E02D8081F5
:100550008F7D80830895EF92FF920F931F93CF9327
:10056000DF93EC0181E0888F9B8D8C8D98131AC0EE
:10057000E889F989808185FF15C09FB7F894EE89D5
:10058000FF896083E889F989808183708064808332
:100590009FBF81E090E0DF91CF911F910F91FF907D
:1005A000EF900895F62E0B8D10E00F5F1F4F0F7325
:1005B0001127E02E8C8D8E110CC00FB607FCFACFE0
:1005C000E889F989808185FFF5CFCE010E948902F3
:1005D000F1CFEB8DEC0FFD2FF11DE35AFF4FF082B1
:1005E0009FB7F8940B8FEA89FB8980818062CFCF17
:1005F000CF93DF93EC01888D8823B9F0AA89BB895A
:10060000E889F9898C9185FD03C0808186FD0DC044
:100610000FB607FCF7CF8C9185FFF2CF808185FF65
:10062000EDCFCE010E948902E9CFDF91CF910895ED
:100630001F920F920FB60F9211242F933F938F9317
:100640009F93AF93BF938091390190913A01A0910C
:100650003B01B0913C013091340123E0230F2D3751
:1006600058F50196A11DB11D2093340180933901E5
:1006700090933A01A0933B01B0933C0180913501E6
:1006800090913601A0913701B09138010196A11DDA
:10069000B11D8093350190933601A0933701B0933B
:1006A0003801BF91AF919F918F913F912F910F9002
:1006B0000FBE0F901F90189526E8230F0296A11DDC
:1006C000B11DD2CF1F920F920FB60F9211242F930C
:1006D0003F934F935F936F937F938F939F93AF93CA
:1006E000BF93EF93FF938DE391E00E948902FF9106
:1006F000EF91BF91AF919F918F917F916F915F919A
:100700004F913F912F910F900FBE0F901F90189512
:100710001F920F920FB60F9211242F938F939F93D6
:10072000EF93FF93E0914D01F0914E018081E091B4
:100730005301F091540182FD1BC0908180915601BC
:100740008F5F8F7320915701821741F0E09156011E
:10075000F0E0E35CFE4F958F80935601FF91EF919F
:100760009F918F912F910F900FBE0F901F90189512
:100770008081F4CF1092400110923F0188EE93E007
:10078000A0E0B0E08093410190934201A093430127
:10079000B09344018CE191E090933E0180933D0140
:1007A00085EC90E090934A018093490184EC90E0BD
:1007B00090934C0180934B0180EC90E090934E011C
:1007C00080934D0181EC90E09093500180934F0114
:1007D00082EC90E0909352018093510186EC90E07E
:1007E0009093540180935301109256011092570137
:1007F00010925801109259011092DC011092E00100
:100800001092DF011092E1018EE291E09093DB0102
:100810008093DA01E6EFF1E01082148213821582F0
:10082000369682E0E233F807B9F784E091E09093DE
:100830003D0280933C0280E091E090933F028093E0
:100840003E0284E0809340028093410288E091E080
:1008500090933B0280933A028AE090E090934302A7
:100860008093420284EF91E090934502809344028A
:1008700010924802109247021092360210923702EC
:10088000109238021092390210924602089578941C
:1008900084B5826084BD84B5816084BD85B5826085
:1008A00085BD85B5816085BD80916E008160809336
:1008B0006E0010928100809181008260809381009F
:1008C00080918100816080938100809180008160AF
:1008D000809380008091B10084608093B10080910A
:1008E000B00081608093B00080917A008460809332
:1008F0007A0080917A00826080937A0080917A00F9
:10090000816080937A0080917A00806880937A0079
:100910001092C100E0914D01F0914E0182E0808380
:10092000E0914901F0914A011082E0914B01F09170
:100930004C018FEC808310925501E0915101F091B0
:10094000520186E08083E0914F01F0915001808157
:1009500080618083E0914F01F09150018081886037
:100960008083E0914F01F091500180818068808305
:10097000E0914F01F091500180818F7D808361E093
:1009800082E00E949F0161E082E00E9471010E946A
:10099000DB014B015C0168ECC62ED12CE12CF12C63
:1009A0000E94DB01681979098A099B09683E734036
:1009B00081059105A8F321E0C21AD108E108F108E8
:1009C00058EE850E53E0951EA11CB11CC114D10434
:1009D000E104F10429F760E082E00E947101812CBA
:1009E000912C5401839422242A94322C50E0652EB9
:1009F00050E0752EF1E0F09346028FB7F8944091E5
:100A0000390150913A0160913B0170913C018FBFD7
:100A10008091360290913702A0913802B09139024C
:100A2000481B590B6A0B7B0B809142029091430249
:100A3000B0E0A0E084179507A607B70708F01EC12D
:100A4000C0E080914002C81760F4E0913C02F09150
:100A50003D02EC0FF11D62E080810E949F01CF5F9B
:100A6000F0CF512C80914102581608F05FC0052D3F
:100A700010E0E0913E02F0913F02E00FF11F61E0D3
:100A800080810E949F01E0913E02F0913F02E00FC1
:100A9000F11F60E080810E947101D501C401052C25
:100AA00004C0880F991FAA1FBB1F0A94D2F76C01BC
:100AB0007C01E094F094412C809140024816F8F4B7
:100AC000C42DD0E0E0913C02F0913D02EC0FFD1FFF
:100AD00080810E9448012496CC0FDD1FC652DE4F54
:100AE000892B41F4888199818C299D299983888358
:100AF0004394E2CF888199818E219F21F7CFE091A5
:100B00003E02F0913F02E00FF11F61E080810E9400
:100B1000710180913E0290913F02080F191F60E021
:100B2000F80180810E949F0153949CCF0AED11E04F
:100B3000E8018F8D98A1892B21F41C8E3E8E2D8E7D
:100B400019A2269686E192E08C179D0791F7F12C69
:100B500080914002F81608F053C0E12CCF2CD12C24
:100B6000CC0CDD1CF601EE51FE4F6F0120914102CD
:100B7000E21608F043C0F601608171810E2C02C0BC
:100B8000769567950A94E2F7F29E900111242E0D56
:100B9000311DEAEDF1E080E0458D568D24173507D3
:100BA00009F46FC08F5F36968A30B1F760FF24C0BA
:100BB000EAEDF1E090E080E0448D411118C0E09151
:100BC0003A02F0913B02E20FF31F408156E0589F3A
:100BD000F001599FF00D1124E652FE4F448F368FDD
:100BE000258F10A2178E61E00E94AF0005C001960C
:100BF00036968A30910501F7E394B8CFF394A8CFE5
:100C000080E0F80191A19111892F0A5F1F4F0C1705
:100C10001D07B9F79FB7F8944091390150913A01F7
:100C200060913B0170913C019FBF4093360250930D
:100C3000370260933802709339028823F9F080916B
:100C4000FB018823D9F08091F9019091FA01019775
:100C5000A9F48091F60161E0811101C060E082E0B9
:100C60000E9471016114710409F4C4CE0E947502DE
:100C7000882309F4BFCE0E940000BCCE1092460229
:100C8000EDCF6170B1CFEE0FFF1F0590F491E02D15
:100C90000994F894FFCF0C0B0A09080706053031B8
:100CA0003233343536373839414243444546000003
:100CB0000000AB020B023802F802690247025B0235
:0A0CC0000000000000020402080218
:107E0000112484B714BE81FFF0D085E080938100F7
:107E100082E08093C00088E18093C10086E0809377
:107E2000C20080E18093C4008EE0C9D0259A86E02C
:107E300020E33CEF91E0309385002093840096BBD3
:107E4000B09BFECF1D9AA8958150A9F7CC24DD24C4
:107E500088248394B5E0AB2EA1E19A2EF3E0BF2EE7
:107E6000A2D0813461F49FD0082FAFD0023811F036
:107E7000013811F484E001C083E08DD089C08234E0
:107E800011F484E103C0853419F485E0A6D080C0E4
:107E9000853579F488D0E82EFF2485D0082F10E0AE
:107EA000102F00270E291F29000F111F8ED06801E7
:107EB0006FC0863521F484E090D080E0DECF843638
:107EC00009F040C070D06FD0082F6DD080E0C81688
:107ED00080E7D80618F4F601B7BEE895C0E0D1E017
:107EE00062D089930C17E1F7F0E0CF16F0E7DF06D8
:107EF00018F0F601B7BEE89568D007B600FCFDCFD4
:107F0000A601A0E0B1E02C9130E011968C91119780
:107F100090E0982F8827822B932B1296FA010C0160
:107F200087BEE89511244E5F5F4FF1E0A038BF0790
:107F300051F7F601A7BEE89507B600FCFDCF97BE46
:107F4000E89526C08437B1F42ED02DD0F82E2BD052
:107F50003CD0F601EF2C8F010F5F1F4F84911BD097
:107F6000EA94F801C1F70894C11CD11CFA94CF0C13
:107F7000D11C0EC0853739F428D08EE10CD085E9AC
:107F80000AD08FE07ACF813511F488E018D01DD067
:107F900080E101D065CF982F8091C00085FFFCCF94
:107FA0009093C60008958091C00087FFFCCF809118
:107FB000C00084FD01C0A8958091C6000895E0E648
:107FC000F0E098E1908380830895EDDF803219F02E
:107FD00088E0F5DFFFCF84E1DECF1F93182FE3DFCA
:107FE0001150E9F7F2DF1F91089580E0E8DFEE27F6
:047FF000FF270994CA
:027FFE00040479
:00000001FF
